:020000040800F2
:10000000980A0020B5010008411E0008271C0008BE
:1000100000000000000000000000000000000000E0
:100020000000000000000000000000005D1F00084C
:100030000000000000000000431E00085F1F0008D1
:10004000C7010008C7010008C7010008C701000870
:10005000C7010008C7010008C7010008C701000860
:10006000C7010008C7010008C7010008C701000850
:10007000C7010008C701000800000000C701000810
:1000800000000000E11F0008000000000000000068
:10009000C701000800000000C7010008C7010008F0
:1000A000C7010008C7010008C7010008C701000810
:1000B000C7010008C7010008C7010008C701000800
:1000C00000F002F800F04AF80CA030C808382418F4
:1000D0002D18A246671EAB4654465D46AC4201D180
:1000E00000F03CF87E460F3E0FCCB6460126334268
:1000F00000D0FB1AA246AB4633431847642B0000DE
:10010000842B0000103A02D378C878C1FAD852077D
:1001100001D330C830C101D504680C6070470000BD
:100120000023002400250026103A01D378C1FBD813
:10013000520700D330C100D50B60704710B5642959
:1001400002D100F075F910BD002010BD1FB5009858
:10015000019900F0D2FA1FBD10B510BD00F0B1FB3F
:100160001146FFF7F3FF02F097F800F0C9FB03B464
:10017000FFF7F2FF03BC00F0F9FB000070B5054685
:100180000C46164602E00FCC0FC5103E102EFAD2D8
:10019000082E02D303CC03C5083E042E07D301CC9E
:1001A00001C5361F03E021782970641C6D1C761E82
:1001B000F9D270BD0748804707480047FEE7FEE7D1
:1001C000FEE7FEE7FEE7FEE704480549054A064B61
:1001D00070470000DD1F0008C100000898040020DF
:1001E000980A0020980600209806002070B5064660
:1001F00000F066FA056830460B30C408E400B442EB
:1002000001D8002070BD68682A46002818D001680F
:10021000A14211D30B46214608318B4208D34368D3
:1002200001194B6003681B1B0B605160046001E007
:1002300041685160001D70BD024640680028E6D14B
:100240002146284600F044FA0028DCD170BD70B584
:100250000446051F00F034FA0068002C1AD04468E8
:1002600001E020466468002C01D0AC42F9D301685B
:100270000A18AA4204D12A6805468918016000E0DC
:10028000456028684119A14205D16168696021680B
:100290004018286070BD6C6070BDFEB50546104604
:1002A0000C46184373D0AE468C460020AD1A01466A
:1002B0009C4167D36646002701243D46B61A9D41FE
:1002C00002D313463A462124654676462F04360C5F
:1002D0003E432D0CB61A9D4104D3150C1B042B4331
:1002E00012041034654676462F06360A3E432D0A20
:1002F000B61A9D4104D3150E1B022B43120208347B
:10030000654676462F0736093E432D09B61A9D41AC
:1003100004D3150F1B012B431201241D654676469D
:10032000AF07B6083E43AD08B61A9D4104D3950FFA
:100330009B002B439200A41C65467646EF07760887
:100340003E436D08B61A9D411AD392185B41641C56
:1003500016E00018764665464941B71A9D4101915D
:10036000009009D36046B11A98418E4684460098A1
:1003700001990025401C6941DD0752082A435B08AA
:10038000641EE6D57246634603B0F0BDFFE7002069
:100390000146C046C0462A462346F5E70FB41CB5C1
:1003A000074B06AA7B4469460090059800F037FA8F
:1003B0000020694600F046FA1CBC08BC04B018478F
:1003C0009D040000F8B50E46044600202062204639
:1003D000E1688847002829D0252802D06268A168F2
:1003E00020E0E16820460027884705001ED0284607
:1003F0004138192802D80127FF022035324620460D
:1004000027602946FFF79AFE002808D0012804D06B
:10041000F61DF608F6000836D9E7361DD7E76268FC
:100420002846A1689047206A401CCFE7206AF8BDA3
:10043000F7B5002575291068009914A611D0C0469B
:10044000C046002802DA404211A608E00099096877
:100450008A0701D50FA602E0490704D50EA601259B
:1004600001E0C046C046009F0024243704E000F0AD
:10047000EEF930313955641C0028F8D12B4632464C
:100480002146009800F06DF9FEBD0000000000005C
:100490002D0000002B00000020000000F8B5042A09
:1004A0002CD3830712D00B78491C0370401C521EBA
:1004B00083070BD00B78491C0370401C521E830726
:1004C00004D00B78491C0370401C521E8B079B0FF5
:1004D00005D0C91ADF002023DE1B08C90AE0FFF798
:1004E0004DFEF8BD1D4608C9FD401C46B4402C43D6
:1004F00010C0121F042AF5D2F308C91A521EF0D4F4
:100500000B78491C0370401C521EEAD40B78491C1E
:100510000370401C012AE4D409780170F8BD01E0A1
:1005200004C0091F0429FBD28B0701D50280801C5F
:10053000C90700D00270704700290BD0C30702D052
:100540000270401C491E022904D3830702D5028091
:10055000801C891EE3E70022EEE70022DFE700228D
:1005600003098B422CD3030A8B4211D300239C46F0
:100570004EE003460B433CD4002243088B4231D368
:1005800003098B421CD3030A8B4201D394463FE0FC
:10059000C3098B4201D3CB01C01A524183098B425C
:1005A00001D38B01C01A524143098B4201D34B0145
:1005B000C01A524103098B4201D30B01C01A5241A8
:1005C000C3088B4201D3CB00C01A524183088B422F
:1005D00001D38B00C01A524143088B4201D34B0018
:1005E000C01A5241411A00D201465241104670478A
:1005F0005DE0CA0F00D04942031000D3404253408F
:1006000000229C4603098B422DD3030A8B4212D34E
:10061000FC22890112BA030A8B420CD38901921180
:100620008B4208D3890192118B4204D389013AD0BD
:10063000921100E08909C3098B4201D3CB01C01A92
:10064000524183098B4201D38B01C01A52414309A5
:100650008B4201D34B01C01A524103098B4201D393
:100660000B01C01A5241C3088B4201D3CB00C01A00
:10067000524183088B4201D38B00C01A5241D9D218
:1006800043088B4201D34B00C01A5241411A00D299
:100690000146634652415B10104601D34042002B95
:1006A00000D54942704763465B1000D3404201B514
:1006B0000020C046C04602BD70477047704700002A
:1006C000004870473C0400207047704770477047EF
:1006D00038B504460A4600206946C046C046002890
:1006E00005D002462046009900F0CAF8012038BD26
:1006F00010B5012000F0DEF810BDF8B5C046C046C8
:10070000054600200C461020C0460646A819A04207
:100710000DD9324669460020C046C046070001D1C7
:1007200000F0C8F80098A04200D00546C419FFF7B1
:10073000C7FFF61D07460560F008C00046192846A9
:1007400000F008F8B44204D031463868A21B00F02B
:1007500097F8F8BD0021016041608060704710206B
:100760007047FFB504460D4681B0243000902168E3
:10077000880604D51022E0699143216000E0012041
:10078000A84201DD471B00E000270498A1697A19FF
:100790001018081AA0612078C00602D42046C0466E
:1007A000C046002608E003986268A168805D904713
:1007B000206A401C761C206204988642F3DB207875
:1007C000C0060AD52046C046C04606E06268A16859
:1007D00030209047206A401C206238467F1E002847
:1007E000F4DC07E000986268A168405D9047206AE9
:1007F000401C206228466D1E0028F3DC2046C046BF
:10080000C0462078000602D5022005B0F0BD0120C8
:10081000FBE7000001694A1C02610878704700B5D7
:100820008FB002910021059105490193794403910C
:10083000114604906846FFF7C5FD0FB000BD0000EB
:10084000E5FFFFFF0A681070521C0A6070470146FE
:100850008008081A02091018020A1018020C101851
:10086000C008820012185200891A01E0401C0A399F
:100870000A29FBD27047000000487047340400206A
:1008800010B50346406801E003464068002801D0E7
:100890008842F9D31868C3188B4206D0CB1CD808FD
:1008A000C000001D411A521A0146081D0A60FFF7D8
:1008B000CEFC10BD10B500F031F800F029F810BDE5
:1008C00070477546FFF7D8FFAE46050069465346A8
:1008D000C008C000854618B020B5FFF775FC60BCA5
:1008E00000274908B6460026C0C5C0C5C0C5C0C55A
:1008F000C0C5C0C5C0C5C0C5403D49008D46704794
:1009000010B50446C046C0462046FFF730FC10BD77
:1009100010B5002801D000F029F810BD10B501284D
:1009200005D0002103A000F027F8012010BD09A187
:10093000F8E7000053494752544D454D3A204F7552
:1009400074206F662068656170206D656D6F7279C7
:10095000000000003A2048656170206D656D6F727F
:100960007920636F72727570746564000149182094
:10097000ABBEFEE72600020070B505460C460A2015
:1009800000E06D1C00F012F8002D06D02878002839
:10099000F7D102E0641C00F009F8002C02D02078A6
:1009A0000028F7D10A2000F001F870BD08B56946AB
:1009B00008700320ABBE08BD72B6FEE770B50446F2
:1009C00000F0F2F80546601C02D0044800782418B4
:1009D00000F0EAF8401BA042FAD370BD2C000020C2
:1009E000F8B5002303240125BDE032462E469E4083
:1009F000B446324079D00E79B607B60F012E01D039
:100A0000022E17D186682746B6465E00B74000968C
:100A10007646BE43B646CF68009EB740764637431B
:100A2000876046686746BE430F79FF06FF0F9F4009
:100A3000374347600E79F643B6070ED0C66827469F
:100A4000B4465E00B646B7406646BE43B4468F68BD
:100A50007646B74066463743C7600E79B607B60F8D
:100A6000022E14D1DE08B60036180096366A5F07EB
:100A7000B446FE0E0F27B646B7406646BE43B446A0
:100A80000F697646B74066463743009E3762066870
:100A90002746B4465E00B646B7406646BE430F7969
:100AA000B446BF07BF0F7646B74066463743076078
:100AB0004E68B603B60F55D02E4F7E6B2E437E6325
:100AC0009F082D4EBF00BE190096B6680F27B4468A
:100AD0009E07360FB646B7406646BE4305273F071A
:100AE000B446B84202D1002715E03BE0234FB8429C
:100AF00001D101270FE0224FB84201D102270AE0BD
:100B0000204FB84201D1032705E01F4FB84201D161
:100B1000052700E006277646B74066463743009E25
:100B2000B7601A4E36684F689643FF0300D51643E8
:100B3000164F3E607E684F689643BF0300D516434C
:100B4000124F7E60BE684F689643FF0200D5164381
:100B50000E4FBE60FE684F689643BF0200D5164335
:100B60000A4AD6605B1C0A681646DA4000D03CE7A9
:100B7000F8BD0000001002400000014000040050D9
:100B800000080050000C0050001C00500004014000
:100B90000069084000D001207047002A01D081611F
:100BA000704781627047000001488068704700000C
:100BB0002C00002002488168027889188160704703
:100BC0002C00002010B50848002401684022114381
:100BD0000160032000F00AF8002801D0012401E0A0
:100BE00000F026F8204610BD0020024070B50446F3
:100BF0000D4D7D202978C000FFF7B1FC01460B4860
:100C00000068FFF7ACFC00F0B1FD002809D1042C0E
:100C100007D200222146401E00F022F800206C601E
:100C200070BD012070BD00002C00002038000020A5
:100C30000448416B012211434163816B020411435B
:100C40008163704700100240002805DBC106C90E11
:100C500001208840014908607047000000E100E081
:100C600010B501F041FA10BDF8B50E46050038D0B8
:100C70005E480068C007C00FB04214D25B4C2068C9
:100C80004008400030432060FFF78EFF074605E034
:100C9000FFF78AFFC11B564881427AD82068C007F7
:100CA000C00FB042F4D12878524C800705D5E068D7
:100CB000F0218843A9680843E0602878C00752D033
:100CC0006868022806D0032807D0216801280AD0C6
:100CD000890504E02168890301E021688901002970
:100CE00003DB0120F8BD4907F9E7E16889088900BD
:100CF0000143E160FFF758FF0746686802280AD001
:100D0000032814D001281ED029E0FFF74DFFC11B96
:100D1000374881423DD8E0680007800F0228F4D1AF
:100D200021E0FFF741FFC11B3148814231D8E06823
:100D30000007800F0328F4D115E0FFF735FFC11B32
:100D40002B48814225D8E0680007800F0128F4D1A4
:100D500009E0FFF729FFC11B2548814219D8E06847
:100D60000007800FF5D121480168C907C90FB142BA
:100D700017D901684908490031430160FFF714FFA2
:100D8000074608E005E0FFF70FFFC11B1848814246
:100D900001D90320F8BD15480068C007C00FB04254
:100DA000F1D12878400706D5E06807210902884379
:100DB000E9680843E0602878000707D5E068072164
:100DC000C90288432969C9000843E06000F01AF8A5
:100DD000E168094A0906090F515CC84007490860E3
:100DE00007480068FFF702FFF8BD0000002002403E
:100DF0008813000000100240442C00083800002036
:100E00003000002070B51A4AD3681A490C201840E7
:100E10008D0004280CD04E00082810D00C2810D0CB
:100E200050680004410F0120C003491C884070BD78
:100E30001068C00601D5084670BD284670BD304612
:100E400070BD98020C4C000F205C1B029C0FD368F5
:100E5000641CDB0301D5314603E01268D20600D4DE
:100E6000294601F028F922460023FFF716FA70BD43
:100E70000010024000093D00542C0008FEB505009A
:100E80007ED0FE4CE7680C20E66807400120000495
:100E900006402878C00747D0082F05D00C2F0AD16C
:100EA00001200004864206D1206880033CD5686892
:100EB0000028E5D038E0012069680004814203D1B0
:100EC00021680143216011E0052301221B049204E3
:100ED0009942216802D111432160F1E781432160E9
:100EE00021680140009120689043206068680028D4
:100EF0000DD0FFF759FE009005E0FFF755FE009971
:100F0000401A64287BD820688003F6D50CE0FFF7F0
:100F10004BFE009005E0FFF747FE0099401A642859
:100F2000F0D820688003F6D42878800756D50923A6
:100F3000E868042F0DD00C2F01D1002E09D0002815
:100F40003CD02168994301432160FFF72DFE0646FE
:100F500028E02168490701D5002891D061681F2247
:100F6000120291432A691202114361602168994378
:100F700001432160FFF746FFE16809060A0F00E020
:100F8000BFE1BF49895CC840BE490860BE480068EF
:100F9000FFF72CFE002873D120E0FFF705FE801B31
:100FA0000228AFD820684007F7D560681F210902E2
:100FB000884329690902084360600FE020684008FF
:100FC00040002060FFF7F0FD064604E0FFF7ECFD6F
:100FD000801B022896D820684007F7D42878C006DE
:100FE00060D5002F0CD0E86900284AD02068FF2186
:100FF000013108432060FFF7D7FD06462EE0E5E00B
:101000002068800502D5E8690028A6D0606807211D
:1010100049038843696A084360606068298C00025C
:10102000000A090608436060686A410B0120C0039A
:10103000491C8840E16809060A0F9149895CC8404B
:101040009049086090480068FFF7D0FD002817D14C
:1010500028E0FFF7A9FD801B0228A2D820688005A0
:10106000F7D56068072149038843696A08436060CF
:101070006068298C0002000A09060843606011E0DC
:1010800025E12168FF20013081432160FFF78CFDBD
:10109000064604E0FFF788FD801B02289AD82068E6
:1010A0008005F7D42878794E000724D56869002890
:1010B000306910D0012108433061FFF775FD0090C1
:1010C00005E0FFF771FD0099401A02287ED83069CB
:1010D0008007F6D50FE0400840003061FFF764FD5F
:1010E000009005E0FFF760FD0099401A02286DD8D6
:1010F00030698007F6D42878400764D50020029034
:10110000A06BC00006D4A06B012109070843A063AF
:10111000012002905E480168C90511D4016882155A
:1011200011430160FFF740FD009005E0FFF73CFD33
:101130000099401A642849D855480068C005F5D57B
:10114000FF20AA680130824203D131690143316135
:1011500011E001218902002A07D005231B029A42CF
:1011600003D132690A433261EFE732698243326167
:10117000306988433061A86800280ED0FFF714FD5D
:10118000009006E0FFF710FD0099411A41488142A6
:101190001CD830698005F5D50DE0FFF705FD0090FE
:1011A00006E0FFF701FD0099411A3A4881420DD847
:1011B00030698005F5D40298002804D0A16B012085
:1011C00000078143A1632878800600E07EE02ED5E9
:1011D0003148A9694314002916D0A26801210A43A5
:1011E000A260626B0A436263016A19430162FFF7FE
:1011F000DBFC064604E0FFF7D7FC801B022865D81D
:10120000A0688007F7D512E0A16849084900A160ED
:10121000016A99430162FFF7C7FC064604E0FFF745
:10122000C3FC801B022851D8A0688007F7D4A86AA5
:10123000002868D00C2F4FD00126360602282068DF
:1012400005D0B0432060FFF7AFFC054640E0B04357
:101250002060FFF7A9FC074604E0FFF7A5FCC01BD0
:10126000022833D820688001F7D4296BE86AE26845
:101270000843696BFD231B049A430FE000100240F2
:10128000442C0008380000203000002040100240AC
:101290000070004088130000000001401143084323
:1012A000E060206830432060FFF77EFC054604E0E4
:1012B000FFF77AFC401B022808D820688001F7D588
:1012C00021E0FFF771FC401B022801D90320FEBD7D
:1012D00020688001F5D416E00128F8D0E0680121EB
:1012E0000904EA6A014091420BD10F2189042A6B5B
:1012F0000140914205D1032189050840696B88426C
:1013000001D00120FEBD0020FEBDF8B504000ED0C6
:10131000FF27606A0537002500280AD0256165612E
:1013200026464036A562707C002807D00AE00120DE
:10133000F8BD6068B842F3D0E561F1E73574204646
:1013400000F03EF8022171742068026840239A433D
:1013500002602123A26860689B021A403840104353
:10136000E3688A021340184323690B40217D184328
:10137000C907C90F0843A169931019400843E169DF
:10138000382319400843216A802319400843A16A81
:1013900093001940084321680860A0690421000CEB
:1013A0000840616A1023194008432168486020689A
:1013B000C1699143C1616565012070740020F8BD69
:1013C00010B586B0044614216846FFF7C6F81049E8
:1013D0002068884219D10F48816B01229203114382
:1013E0008163C26A02210A43C262C06A0191084055
:1013F00005900720400300900021032002910491F2
:10140000039069460448FFF7EBFA06B010BD0000F0
:10141000003800400010024000040050FFB50546AF
:1014200004464035287C002781B01646012809D0A3
:1014300001202874FFF7B8FB0090687C012804D0D5
:10144000022795E0022005B0F0BD0298002872D076
:10145000002E70D00320687400206065029921631B
:10146000A686E686A063A087E087606420640122E8
:10147000A068D2034021904208D1206802688A43C4
:101480000260206802680B021A430260206802684A
:10149000520602D402680A4302600120E168C002D9
:1014A0008142606826D1002801D0012E1ED1206B18
:1014B00021680088C86006E020688168890709D52E
:1014C000216B0988C160206B801C2063E08E401E68
:1014D000E0860BE0FFF768FB0099411A049881420F
:1014E00002D3401C02D039E0002837D0E08E00281B
:1014F000E2D126E0002801D0012E1FD1206B216807
:101500000078087306E020688168890709D5216B97
:1015100009780173206B401C2063E08E401EE0863A
:101520000CE0FFF741FB0099411A0498814203D374
:10153000401C03D012E01AE000280FD0E08E0028F3
:10154000E1D12046009A049900F07CFC002801D0EB
:1015500020206065A068002802D005E0032707E08E
:101560002068C16880680090606D002800D0012765
:101570000120687400202874384664E7FFB50446EB
:1015800083B0012001900020264640360090307C38
:101590000C9F1D4601280FD001203074FFF704FB7B
:1015A0000290707C616801280DD0CA1FFD3A08D1F5
:1015B000A168002905D102E0022007B0F0BD04288F
:1015C00001D00220C3E00498002828D00598002804
:1015D00025D0002D23D0707C042801D00520707404
:1015E000002060650599A163E587A58704992163BB
:1015F000E586A5862064606420680168490603D4F6
:1016000001684022114301600121E068C90288425B
:10161000606848D1002804D0012D02D03CE00120B0
:1016200095E0206B21680088C860206B801C2063D7
:10163000E08E401EE0862FE020688168890710D583
:10164000E18E00290DD0019901290AD1216B098869
:10165000C160206B801C2063E08E401EE08600206D
:10166000019020688168C9070DD0E18F00290AD058
:10167000C068A16B0880A06B801CA063E08F401E37
:10168000E08701200190FFF78FFA01460298081ABF
:10169000B84201D3781C59D1E08E0028CCD1E08F1C
:1016A0000028C9D146E0002801D0012D3CD1206B93
:1016B000216800780873206B401C2063E08E401E78
:1016C000E08631E020688168890710D5E18E002925
:1016D0000DD0019901290AD1216B09780173206B82
:1016E000401C2063E08E401EE086002001902068B0
:1016F0008168C9070DD0E18F00290AD0C068A16BAD
:101700000870A06B401CA063E08F401EE0870120A2
:101710000190FFF749FA0299401AB84202D3781CA7
:1017200002D013E0002F11D0E08E0028CAD1E08F44
:101730000028C7D139462046029A00F083FB0028D2
:1017400007D0012000902020606509E00320009070
:1017500006E0A068002803D12068C1688068019075
:101760000120707400203074009826E7094910B5F4
:10177000401E884201D9012010BD074C6061032141
:10178000081F00F0B1FC0020A061072020610020AC
:1017900010BD0000FFFFFF0000E000E0F0B50246D2
:1017A0002032137E012B1ED001251576022353769D
:1017B00006687468B3687027BC430F682743776076
:1017C0000068AC07A04205D0084CA04202D0084CEB
:1017D000A04204D180244968A3431943816055760F
:1017E00000201076F0BD0220F0BD0000000801408E
:1017F0000014014070B5050005D02C462034607EF1
:10180000002802D006E0012070BD00202076284686
:1018100000F010F802206076291D286800F0E8FB2F
:101820000120A077A076E0762077607760760020B0
:1018300070BD000010B50122016892070B4891426B
:1018400004D1816B01221143816310BD084A91428A
:10185000FBD1816B102211438163002211461120BC
:10186000FFF7FEF91120FFF7EFF910BD001002405D
:1018700000100040014620314A7E012A01D001209B
:10188000704702224A76006852070121904205D033
:10189000074A904202D0074A904204D18268520718
:1018A000520F062A02D002680A43026000207047E5
:1018B0000008014000140140014620314A7E012AFF
:1018C00001D00120704702224A760268D3680121C4
:1018D0000B43D36000688A07904205D0074A9042C4
:1018E00002D0074A904204D182685207520F062A5A
:1018F00002D002680A4302600020704700080140DD
:1019000000140140F8B5054604462035287E00261F
:10191000012817D001202876022068762268906876
:101920007727FF23B8431B0298439060086850282C
:1019300038D00EDC20284FD006DC00284CD01028F0
:101940001ED149E00220F8BD302845D0402817D1EB
:101950003AE060282ED0702819D001221203801A94
:101960000FD090420CD1CB684A688968206800F09B
:101970006BFB20688168012292031143816000E0C3
:10198000012601206876002028763046F8BDCB6815
:101990004A688968206800F057FB216888683843E6
:1019A0008860EEE7CA684968206800F060FB502153
:1019B000206806E0CA684968206800F069FB602179
:1019C000206800F04CFBDCE7CA684968206800F03A
:1019D0004EFB40212068F4E7226801461046F0E7FC
:1019E000704770B50446006801690025C94389073E
:1019F000002915DBC168C943890711D4E91E0161BB
:101A000001202076206880698007204602D0FFF7F9
:101A1000E7FF04E000F078F8204600F076F825763D
:101A200020680169C943490717D4C168C9434907F8
:101A300013D40421C9430161022020762068806903
:101A40008005800F204602D0FFF7CAFF04E000F0B7
:101A50005BF8204600F059F8257620680169C943F3
:101A6000090716D4C168C943090712D40821C9431C
:101A70000161042020762068C0698007204602D0DA
:101A8000FFF7AEFF04E000F03FF8204600F03DF81D
:101A9000257620680169C943C90617D4C168C943BE
:101AA000C90613D41021C94301610820207620689B
:101AB000C0698005800F204602D0FFF791FF04E047
:101AC00000F022F8204600F020F825762068016911
:101AD000C943C90708D1C168C943C90704D1891ED0
:101AE0000161204600F012F820680169C9434906E7
:101AF00009D4C168C943490605D44021C9430161DD
:101B0000204600F08FF870BD70477047F8B5414926
:101B1000FF23CA89F53300209A4202D2521CCA819F
:101B200000E0C8810A78082A02D2521C0A7000E03C
:101B300008700A780123374C93401834E370087119
:101B40004871CB8930259E464B690D349C4613461F
:101B50006B43314D002066785D1996420DD1237894
:101B600083420AD1A378002B07D001230F79834049
:101B70001F430F714F793B434B718300EB58002B90
:101B800026D01F79022F674605D0BB4215D1734678
:101B9000FA2B18D81CE0BB4208D17346FA2B17D990
:101BA00001230F7983403B430B7111E09B78012B9C
:101BB000F6D17346462BF3D80AE09B78012B02D16D
:101BC0007346462B04D901234F7983403B434B7125
:101BD000401CC0B20828C0D30879104BC2430D483E
:101BE0001830427149790622C943017101460C48F7
:101BF000FFF714FC0122052514022D072146284673
:101C0000FEF7CBFF002221462846FEF7C6FF00F074
:101C10009FFBF8BD000000201C010020E70300002E
:101C20005C0300207047FEE7F0B587B014216846DA
:101C3000FEF793FC3D48C26A04210A43C262C26AAD
:101C40000A400592C26A80210A43C262C26A0A40FF
:101C50000592C16A01252943C162C16A29400591E3
:101C6000C16A02263143C162C06A6C0330400590EC
:101C7000002221462E48FEF790FF012211032D4835
:101C8000FEF78BFF81210520002209020007FEF7E5
:101C900084FF0022F8212748FEF77FFF00940024EC
:101CA00001950294694622480394FEF799FE0320A9
:101CB0008003032700906946019702941C48FEF7B1
:101CC0008FFE009769461C4801970294FEF788FE34
:101CD0001A48009005206946019702940007FEF714
:101CE0007FFE174800906946019702941148FEF75D
:101CF00077FE69460F48009602950194FEF770FE44
:101D00001048009069460397019502940948FEF730
:101D100067FE812000020090052069460397019527
:101D200002940007FEF75CFE07B0F0BD0010024011
:101D30000008005000040050001C0050FF1E00006E
:101D4000050F0000F810000010B50F480D490160A4
:101D5000FF210531416000218160C16001220161E4
:101D6000520282614161016208224162C261816264
:101D70000721C162FFF7C9FA002801D0FEF71CFE57
:101D800010BD0000003800405C03002010B586B094
:101D900000240094012116480194029403940494B1
:101DA0008907059401601F21846041600461114925
:101DB0004461C160FFF71EFD002801D0FEF7FCFD65
:101DC00001200003009069460948FFF79BFD0028A9
:101DD00001D0FEF7F1FD049404A905480594FFF72E
:101DE000DDFC002801D0FEF7E7FD06B010BD0000C5
:101DF000B4030020FEFF00001CB500240E48009430
:101E00000C49019401601F21846041600B494461C9
:101E1000C160FFF7EFFC002801D0FEF7CDFD009474
:101E2000694605480194FFF7B9FC002801D0FEF788
:101E3000C3FD1CBD00100040F4030020E7030000B8
:101E4000FEE77047F8B5044615480E461546134997
:101E50000068FEF784FB7D21C9004843009060685C
:101E6000C11FFD390ED13346002280212046009546
:101E700000F018F800280FD0606D2021084360653D
:101E80000320F8BD0098002806D0401E009020686E
:101E90008068C0430006F5D50020F8BD00366E010D
:101EA00038000020FFB581B01E4604460A9DFEF7AB
:101EB0007BFE401B351AFEF777FE07462648006872
:101EC0004001000D684339E0701C38D0FEF76CFE0D
:101ED000C01BA84205D2002D03D0009800282BD0AB
:101EE0002BE020684168E022914341606068C11F97
:101EF000FD390CD10121A068C903884202D04911E3
:101F0000884204D120680168402291430160012089
:101F1000A16A4003814207D121680A6882430A60AE
:101F200021680A6802430A6001204034607400207E
:101F30002074032005B0F0BD0025401E00902068ED
:101F400081680298884305D0002103988142BBD163
:101F50000020EFE70121F8E738000020704710B5B6
:101F6000FEF728FE10BD000010B594B03821684679
:101F7000FEF7F3FA14210EA8FEF7EFFA16480168EF
:101F80000322D2029143C2148918016002200090FA
:101F900001210A90039140040C90000110210024BB
:101FA0000D900B9404916846FEF768FF002801D05D
:101FB00072B6FEE70F200E9003200F90109411943C
:101FC000012112940EA8FEF74FFE002801D072B630
:101FD000FEE714B010BD0000007000407047000024
:101FE00010B50248FFF7FDFC10BD0000F40300200F
:101FF00070B5026801239B07114C124D984203D023
:10200000A04201D0A84203D17026B2434E683243A9
:10201000984203D0A04201D0A84204D103231B025E
:102020009A43CB681A4380239A430B691A43026090
:102030008A68C262096881620121416170BD000045
:10204000000801400014014030B58468FF252D02CE
:102050001B021343AC430B432343836030BD8268B0
:1020600070239A430A4307210A438260704730B5C0
:10207000036A046A6408640004628469F025AC435E
:10208000120122430A24A3430B438261036230BD41
:1020900030B5036A1024A34303628469036A0F25E1
:1020A0002D031203AC432243A024A3430901194387
:1020B0008261016230BDF8B5040C8BB2264682B253
:1020C0005E430D0C1046370C58433604801900212E
:1020D000794116466E43370C3604801979412646FD
:1020E0006E438919F8BD00008307FF22DB0E9A407A
:1020F0008907090E9940002808DB830809489B00DE
:102100001B18186890430843186070470007000FB9
:102110000838830804489B001B18D869904308437B
:10212000D861704700E400E000ED00E000220121EA
:1021300089074A624A6A8242FCD3704700B589B077
:10214000024604A16846FEF729F9684600F098F8AF
:1021500009B000BD434F4449474F204445204552F4
:10216000524F20256400000010B50021332000F0FC
:1021700027F81420FEF722FC0021322000F020F87E
:102180001420FEF71BFC0021282000F019F8142071
:10219000FEF714FC0021062000F012F81420FEF7D0
:1021A0000DFC00210F2000F00BF81420FEF706FCB8
:1021B0000021012000F004F81420FEF7FFFB10BD01
:1021C000F8B52D4D04460A4608212846FEF7E5FCE1
:1021D00001262A4FE2097603D20131463846FEF73E
:1021E000DCFC22464020024080212846FEF7D5FC38
:1021F00022462020024040212846FEF7CEFC2246FF
:102200001020024020212846FEF7C7FC01221021A1
:102210002846FEF7C2FCFA20FFF788FF00221021B3
:102220002846FEF7BAFC22460820024031463846CE
:10223000FEF7B3FC22460420024080212846FEF728
:10224000ACFC22460220024040212846FEF7A5FCB5
:10225000E207D20F20212846FEF79FFC0122102121
:102260002846FEF79AFCFA20FFF760FF00221021B3
:102270002846FEF792FCF8BD00040050000800500C
:1022800010B5044603E00121641CFFF799FF207894
:102290000028F8D110BD0000FEF794FCFFF764FEA3
:1022A000FFF7C2FCFFF750FDFFF7A6FDFFF76EFD3D
:1022B0000F48FFF7DFFAFFF757FF0E48FFF7FCFA6A
:1022C0000D4CA078002802D0012805D102E000F0D2
:1022D00013F901E000F064F96078002804D00128C7
:1022E000EFD100F097F8ECE700F07CF8E9E70000A8
:1022F000B4030020F403002000000020F8B50446D9
:102300000E46407830214843104F2178C01989008B
:1023100040581546A04202D00120FFF70FFF3020A1
:102320000A4968434218B10053580020A34200D024
:102330005871677830235F43044BFB182778BF0040
:10234000D851545026706570F8BD00001C01002063
:10235000FEB500240125684601940572A021417252
:10236000224629031C48FEF718FC7D26F6000323AD
:1023700001AA02A919480096FFF700F901221103EA
:102380001548FEF70AFC68464079154F0007010D15
:102390006846807900220143398068460572E02151
:1023A000417229030C480194FEF7F7FB032301AAAD
:1023B00002A90A480096FFF7E1F801221103064836
:1023C000FEF7EBFB684640790007010D684680790F
:1023D00001437980FEBD0000000400505C03002032
:1023E0001000002010B530210848FEF7B6F8074865
:1023F00030213030FEF7B1F8054800218170FF210F
:10240000417000210120FFF7DBFE10BDBC00002061
:102410000000002010B50948002141730173C1720A
:102420008172C17041720172C1718171012181702B
:10243000FF21417000F004F810BD000000000020F2
:10244000F8B52B4800250146456107221E3125308D
:10245000FEF724F8274E0024A700F059FDF7F7FEF9
:102460003846244F30373858FDF7F1FE641CE4B28B
:10247000082CF1D30921384689019030FEF76DF818
:10248000002401270720FDF7B1FE1A49A600C0313C
:102490008851C0398851022202718859C470885904
:1024A00004708859457088598570885947718859D2
:1024B00087710720FDF79AFE0E49C0317118FF3170
:1024C000013108650B493031885107718859C47052
:1024D000885904708A59072050708859641C857087
:1024E0008859E4B247718859082C8771CAD3F8BD5E
:1024F000000000205C00002070B500218020FFF764
:102500005FFE13A0FFF7BCFE00219420FFF758FEEA
:1025100015A0FFF7B5FE0021D420FFF751FE18A04B
:10252000FFF7AEFE1C4E02213046FEF731FB1B4C7E
:102530000125002803D1E078002800D06570022131
:102540003046FEF725FB002800D0E57070BD000086
:10255000202058414452455A20205255504553544A
:1025600052452020000000005052455353494F4E21
:1025700045204F204A4F59535449434B0000000017
:102580005041524120434F4D45434152204F204A34
:102590004F474F21000000000004005000000020C1
:1025A000FEB50020FE4CFF4DE0722B462073303B01
:1025B000FC49860060398A595179002904D0E17AB2
:1025C0008F00EA51491CE1729A595179002906D0CD
:1025D000217BF44E8F003036F251491C2173401C90
:1025E000C0B20828E4D3E07A7D26F600002816D091
:1025F000207B00283AD000219420FFF7E1FDEAA0DB
:10260000FFF73EFEA07900285AD0E07A401E6073A2
:10261000E9A0FFF735FEE079800028585BE0002153
:102620008020FFF7CDFDE6A0FFF72AFE0021C020A5
:10263000FFF7C6FDE7A0FFF723FE00219420FFF778
:10264000BFFDE9A0FFF71CFE0021D420FFF7B8FD75
:10265000EAA0FFF715FE3046FEF7B0F9EC4C022178
:102660002046FEF795FA0028F9D125E000218020C8
:10267000FFF7A6FDD2A0FFF703FE0021C020FFF761
:102680009FFDD4A0FFF7FCFD00219420FFF798FDEB
:10269000E0A0FFF7F5FD0021D420FFF791FDD7A0C2
:1026A000FFF7EEFD3046FEF789F9D94C02212046AE
:1026B000FEF76EFA0028F9D1FFF794FE0020FEBD68
:1026C000207B401E6073D8A0FFF7DAFDE07981001F
:1026D000B44830304058B24D6061B24E2535607A12
:1026E0002F466036153F002815D00128E7D100217C
:1026F000D420FFF765FD3046E279CDA1E038FDF743
:102700004DFE3046E038FFF7BBFD60698179002956
:102710007ED0022224E10021D420FFF751FD606920
:10272000C9A1C2789F488038FDF738FE9D4880389F
:10273000FFF7A6FD3988CA4881420AD9E078002807
:1027400007D0E079627B904201D2401C00E000207B
:10275000E071642909D2E078002806D0E0790028E9
:1027600001D0401E00E0607BE0710221A848FEF726
:102770000FFA00287ED1E07800287BD06069032121
:102780008278002AF6D1A2790092002A027828D015
:10279000002A09D0437830277B439B199700DB1927
:1027A000DB6A1B79012B00D0022143789C46072B62
:1027B00008D0674630235F43BB199700DB191B6BBA
:1027C000002B01D0491EC9B2072A37D063463027F3
:1027D0007B439B1992009A18526B1279012A2DD1D2
:1027E0002EE0002A0AD0437830277B439B199700BC
:1027F000DB19803BDB6C1B79022B00D00221437874
:102800009C46002B0BD0674630235F43BB1900E08A
:10281000A5E09700DB19803B1B6D002B01D0491E02
:10282000C9B2072A0AD0634630277B439B1992001E
:102830009A18803A526D1279022A01D0491EC9B203
:10284000002978D00127677202782A704178697070
:10285000009B002B34D0072907D230234B439B1910
:1028600092009A18126B002A11D00278072A18D207
:10287000417800E05FE0072910D230234B439B19D9
:1028800092009A18526B1279012A02D006E0491C74
:1028900033E0491C69700178491C297001780029CE
:1028A00048D04178072945D2302203784A4392190B
:1028B0009B00D218D26A1279012A3BD1491C35E01B
:1028C000002908D030234B439B1992009A18803A74
:1028D000126D002A10D00278072A18D241780029F8
:1028E00012D030234B439B1992009A18803A526DB4
:1028F0001279022A03D007E0491E69701AE0491EC6
:1029000069700178491C29700178002912D041783A
:1029100000290FD0302203784A4392199B00D21825
:10292000803AD26C1279022A04D1491E697000786B
:10293000401E2870AF701A4849491030008863392A
:102940006438884205D202213148FEF721F9002877
:1029500003D10020E070E081FEBD012068E101228A
:102960000F4910314988019164297BD2E17800290F
:1029700078D0A1790091002909D0417830235943BA
:10298000037889199B00C918096B00296AD16978F5
:1029900030234B439B192F789C46BF00DB5962E0E4
:1029A00000000020BC0000205455524E4F20444FE0
:1029B0002054494D452000005645524D2E20000020
:1029C00020202046494D204445204A4F474F212092
:1029D0002020200020205649544F52494120444F86
:1029E0002054494D452020002020202020205645FD
:1029F000524445212020202020202000202020504B
:102A000052494D41204F20424F54414F2020200039
:102A1000000400502020202020205645524D2E2119
:102A20002020202020202000564552444520000030
:102A30004D6F76656E646F207065616F206E6F2ECE
:102A4000202564202000000053656C65632E2070F3
:102A500065616F206E6F2E2025642020200000000D
:102A60003C0F000013E0834218D0072916D26346BA
:102A7000DB191B6B002B11D103782B70009B002BF3
:102A800006D043789B18994208DA491C697005E022
:102A9000002903D043789B189942F6DD664B0199D3
:102AA000994235D9E178002932D0A17900910029E5
:102AB00009D0417830235943037889199B00C918FC
:102AC000096B002924D1697830234B432F789B1957
:102AD0009C46BF00DB5983421AD0002918D06346B8
:102AE000DB19803B1B6D002B12D103782B70009BF0
:102AF000002B437805D09A1A914209DB072905D3A8
:102B000006E09A1A914203DD072901D8491E69702F
:102B10004A490A8848498A422AD9E178002927D0B7
:102B2000A179037800290FD0072B21D241780729FA
:102B30001ED230274F43BF199B00FB185B6B1B79DC
:102B4000012B15D1491C0FE0072B11D24178002928
:102B50000ED030274F43BF199B00FB18803B5B6DA5
:102B60001B79022B04D1491E69700178491C297018
:102B7000324F642A2AD2E178002927D0A17902783D
:102B800000290FD0002A21D0417807291ED23023F6
:102B90004B439B1992009A18D26A1279012A15D1D7
:102BA000491C0FE0002A11D0417800290ED03023B3
:102BB0004B439B1992009A18803AD26C1279022AE0
:102BC00004D1491E69700078401E28701C4E0221F5
:102BD0003046FDF7DDFF002816D1E078002813D03D
:102BE0006369002098716072A179002922D00021C8
:102BF000A171E070E071A8706A7829781846FFF733
:102C00007DFBA07A401CA07239880B4A6439633A74
:102C100091420CD278880849884208D8642806D3A3
:102C200002213046FDF7B4FF002800D095E60020D1
:102C3000E070FEBD0121DBE73C0F0000100000202A
:102C40000004005000000000000000000102030426
:102C500006070809030406080C10182030000000BD
:102C6000802C0008000000203C0000000401000847
:102C7000BC2C00083C0000205C0A00002001000879
:102C80000000000000000000000000000000000044
:102C90000000000000000000000000000000000034
:102CA0000000000000000000000000000100000023
:0C2CB000040000000000000000002000F4
:04000005080000C12E
:00000001FF
